202607VA26OBL001001OV00012345036-2026-0160-000   0160  2520480100000000010000000202600120263652026032OBLIGATION - MEDICAL SUPPLIES                                                                                                                        
202607VA26OBL001002DV00012345036-2026-0160-000   0160  2520490200000000006000000202600120263652026060DISBURSEMENT - PARTIAL A                                                                                                                             
202607VA26OBL001003DV00012345036-2026-0160-000   0160  2520490200000000004000000202600120263652026120DISBURSEMENT - PARTIAL B                                                                                                                             
202607VA26OBL002001OV00099001036-2026-0162-000   0162  2520480100000000025000000202600120263652026032OBLIGATION - PROSTHETICS CONTRACT                                                                                                                    
202607VA26OBL002002DV00099001036-2026-0162-000   0162  2520490200000000012000000202600120263652026200DISBURSEMENT - MILESTONE 1                                                                                                                           
