202607VA26OBL900001OV00012345036-2026-0160-000   0160  2520480100000000010000000202600120263652026032OBLIGATION - OVER DISBURSED EXAMPLE                                                                                                                  
202607VA26OBL900002DV00012345036-2026-0160-000   0160  2520490200000000006000000202600120263652026060DISBURSEMENT - PARTIAL A                                                                                                                             
202607VA26OBL900003DV00012345036-2026-0160-000   0160  2520490200000000005000000202600120263652026120DISBURSEMENT - OVER BY 10K                                                                                                                           
